:040000000C94340028
:100004000C9400000C9400000C9400000C9400006C
:100014000C9400000C9400000C9400000C9400005C
:100024000C9400000C9400000C9400000C9400004C
:100034000C9400000C9400000C9400000C9400003C
:100044000C9400000C9400000C9400000C9400002C
:1000540001002D4E414E00494E4600000100600251
:1000640054000000F894EE27ECBBF1E0FBBFEBBFBB
:10007400E5BF8DE0A2E0BB27ED938A95E9F780E028
:1000840098E0A0E6ED930197E9F7E0E6F0E08591CA
:100094009591009761F0A591B59105901590BF01D8
:1000A400F00105900D920197E1F7FB01F0CFEFE528
:1000B400EDBFE8E0EEBFC0E6D2E00C946100EFEFE4
:1000C400EABBE0E0EBBB2297E0E0E883E983A881A8
:1000D400B981199704F52297E0E0F0E060E070E45C
:1000E4000E948404EE81FF810E944202DF01CB0161
:1000F4000E94F0010E94ED02E883F983E881EBBBE2
:10010400A4EFB1E00E9493022296E881F98131962E
:10011400E883F983DCCF2296D6CFFFCF0E948904EF
:100124007B816A81F981E88177FB770F67FD7160D4
:10013400972F9E5781F078F0983190F4AA27BB2727
:10014400882708948795B795A7959A95D1F7EA23B8
:10015400FB23682305C0E8947727EE27FF2766274B
:100164006F77769508F4606877F9A991B9918991C8
:100174009991EA17FB076807790797FB08950E948E
:1001840089040E947A040E9490000E947F0419F45A
:100194000E94470205C0E6F70E9447020E944A02F5
:1001A400249608950E94890424971A930A930E941E
:1001B40051020E949F042CF0EFEFFFEF6FE77FEFF7
:1001C40071C00E9456020E948404ADB7BEB7119755
:1001D4001F930F930E949D020F911F910E945B0237
:1001E4000E945102E3EFF4E065E37FE30E944304DD
:1001F40040F40E9460020E9460030E945B0201506E
:1002040010400E9456020E944A027F936F93FF930C
:10021400EF930E945602A0E0B0E080E89FE30E94C2
:100224006003AF91BF918F919F910E94FE030E9442
:100234005B020E9460020E946202A6E2B2E485E6CA
:100244009FE30E946902EEE4F1E164E570E40E9438
:100254006E020E9451020E94B0037F936F93FF933A
:10026400EF930E947302ADE4B1E184ED9FE30E9439
:100274005903AF91BF918F919F910E94FE037F9389
:100284006F93FF93EF93F8010E944202A8E1B2E753
:1002940081E39FE30E94B003AF91BF918F919F913F
:1002A4000E946003198108812A9608950E94890496
:1002B40028971A930A930E947802E0E5FCEA6EEA12
:1002C40072EC0E94430418F40E947D0283C0EA8504
:1002D400FB856C857D850E949B0429F4E0E0F0E0B9
:1002E40060E87FE377C00E947802E8E1F2E761EB1F
:1002F40072E40E94430409F008F405C0EFEFFFEF35
:100304006FE77FE767C00E947802EBE3FAEA68EBE5
:100314007FE30E94B003EA87FB876C877D870E9496
:1003240078022DDF0E94EF028F010E9478020E9462
:1003340042020E946E02DF01CB01E0E0F0E060E0E7
:100344007FE30E946E020E945B020E9460020E9490
:100354006202ADE6BCE48CE69DE30E94B003A6EA2B
:10036400B3EE86EE90E40E9460030E9451020E9464
:10037400B0030E945B020E947302A8E2BDE886EA11
:1003840091E40E946003EA83FB836C837D830E9473
:100394005602AA81BB818C819D810E946003A3EFD8
:1003A400B4E085EB9FE30E94B0037F936F93FF93C8
:1003B400EF930E9451020E9473020E945903AF916D
:1003C400BF918F919F910E94FE030E948404D801E3
:1003D4000E94AE02198108812E9608950E94890414
:1003E40024970E9482020E949B0419F40E947D02B9
:1003F40045C0A885B9858A859B850E949F0494F48D
:100404000E9487020E949B0429F4E0E0F0E060E887
:100414007FE334C0A885B9858A859B850E948C02B8
:1004240045DF2CC00E948702DE010E94EF020E9479
:1004340070040E9447020E942603DF01CB010E9440
:1004440087020E94A50419F00E947D0217C00E9431
:1004540082020E94BA02DF01CB010E948C0226DFD5
:10046400E887F9876A877B87E881E17019F40E943D
:10047400820204C00E9482020E94BA022C9608954D
:100484000E946B040E94260308950E947504089537
:10049400A0E0B0E080E89FE30E9459030895AE8194
:1004A400BF81888599850895EE81FF816885798566
:1004B4000895EE83FF83688779870895F5DFEFCF8A
:1004C4000E94B003EA83FB836C837D8308950E94BA
:1004D400B003DF01CB0108950E948E040E945903EA
:1004E4000895EA81FB816C817D810895AA85BB858D
:1004F4008C859D850895E0E0F0E060E070E008956B
:10050400E885F9856A857B850895EC81FD816E8196
:100514007F8108950E94D400AC81BD818E819F812A
:10052400D6CF109639F0A89580ED97E00197F1F7B2
:100534001197C9F70895E991F9916991799177FB38
:10054400660F771F88277E57880B7D938C937EE7F1
:10055400769567956EF00895E991F991699179918D
:1005640077FB660F771F7A0F769567950EF00895DF
:1005740030976040704009F070580895552342F454
:10058400503811F4E0FF04C03196691F791F6BF0F5
:1005940050E8572711F45F93CFC05F3F31F0660FE7
:1005A400000C57956795752F08955F9300200AF006
:1005B400CFC0C8C050E8192E1522880F991F95275F
:1005C400550F879550E8072E0522660F771F75276C
:1005D400550F67950895689401C0E8945F93F2DF1E
:1005E400703818F07F3F08F4A7C056E1571BAAF4EF
:1005F400519558300EF4593030F0EFEFFFEF6FEFB4
:100604007FE777F91AC077275523B9F0EE0FFF1F5C
:10061400661F771F5A95D1F710C07727583028F0F6
:10062400EF2FF62F672F5850F9CF552331F07695D9
:100634006795F795E7955A95D1F700200AF441D1CB
:100644005F910895689401C0E894309760407040C9
:10065400B1F0002426F0772312F4009432D1172E3F
:100664007EE1112032F07A95EE0FFF1F661F111CF8
:10067400F9CFEF2FF62F612D5F938ADF5F910895F5
:100684004F93AF01FD01DA01AB01BC01CA01402D5A
:10069400012C142E4F910895EA0FFB1F681F089533
:1006A400E095F0956095EF5FFF4F6F4F08955F936E
:1006B40081DF903871F150E8152604C05F937ADF2A
:1006C400903839F1703821F1572F591B2BF112F45E
:1006D400D7DFFACF583118F0AA27BB27882758301C
:1006E40028F0AB2FB82F88275850F9CF552329F07D
:1006F4008695B795A7955A95D9F7502D512572F03F
:10070400CBDF38F46795F795E795739513F420C01C
:10071400B7DF3EDF5F910895D8F7FBCFEA1BFB0BF1
:10072400680B51F010F40094BBDF662392F3EE0FD4
:10073400FF1F661F7A95CBF7EE27FF2766277727DB
:100744005F910895EFEFFFEF6FE77FEF5F910895FB
:10075400EFEFFFEF6FE77FE75F9108955F932ADF85
:10076400703851F3903841F301240894791F23F42D
:100774001CF300203AF3ECCF0F921F932F933F9377
:100784004F93112722279927689FA0018F9F302D0F
:10079400410D591F6B9F300D411D591F8E9F27D04E
:1007A400BF9F25D06A9F23D0BE9F1DD0AF9F1BD073
:1007B400AE9F110D291F391F491F591FE32FF42F15
:1007C400652F522F4F913F912F911F910F906623C8
:1007D4002AF0550FEE1FFF1F661F02C073954BF2E0
:1007E400CDDE5F910895100D211D391F02C0200D2B
:1007F400311D491F591F08955F93DCDE703821F4C1
:1008040011200AF49FCFA4CF903809F495CF012486
:100814000894970B1BF4D4F30020F3CF792F1F9384
:100824002F933F934F9311241127222733274427D3
:10083400552790E2AE17BF078607410730F0AE1B7D
:10084400BF0B860B410B089401C08894551F221FCF
:10085400331F111CAA1FBB1F881F441F9A9551F7F1
:10086400F901612D4F913F912F911F91662332F031
:10087400550FEE1FFF1F661F7A9543F27FDE5F91CF
:10088400089599239AF0772342F0971748F029F4B2
:10089400AE17BF07860720F031F098948894089526
:1008A4009894089408951894889408957723C2F727
:1008B400971798F3A9F7EA17FB07680788F399F3E2
:1008C400ECCFF09560957095E195FF4F6F4F7F4F9A
:1008D40008956F2F660F660B762F0895ED93FD93A1
:1008E4006D937C930895E881F9816A817B810895F1
:1008F400A881B9818A819B810895E883F9836A83F9
:100904007B8308957A936A93FA93EA9308959A936A
:100914008A93BA93AA930895182E862F612D192EBF
:10092400972F712D1B2EBF2FF12D1A2EAE2FE12DD7
:100934000895309760407040089500240A160B060D
:10094400080609060895EA17FB076807790708955A
:00000001FF
