:0A0000000C9434000C9400000C94E2
:10000A0000000C9400000C9400000C9400000C9466
:10001A0000000C9400000C9400000C9400000C9456
:10002A0000000C9400000C9400000C9400000C9446
:10003A0000000C9400000C9400000C9400000C9436
:10004A0000000C9400000C94000001002D4E414E5B
:10005A0000494E4600000100600254000000F89476
:10006A00EE27ECBBF1E0FBBFEBBFE5BF8DE0A2E002
:10007A00BB27ED938A95E9F780E098E0A0E6ED9337
:10008A000197E9F7E0E6F0E085919591009761F034
:10009A00A591B59105901590BF01F00105900D92BB
:1000AA000197E1F7FB01F0CFEFE5EDBFE8E0EEBF26
:1000BA00C0E6D2E00C946100EFEFEABBE0E0EBBBF4
:1000CA002297E0E0E883E983A881B981199744F48B
:1000DA000E943D02E881F9813196E883F983F4CFE1
:1000EA00E8E0F0E0E883F983A981AA2342F00E94BC
:1000FA003D02E881F9813197E883F983F5CF2296A9
:10010A00DFCFFFCF0E949C047B816A81F981E8815D
:10011A0077FB770F67FD7160972F9E5781F078F014
:10012A00983190F4AA27BB27882708948795B79512
:10013A00A7959A95D1F7EA23FB23682305C0E8948B
:10014A007727EE27FF2766276F77769508F460688A
:10015A0077F9A991B99189919991EA17FB076807EB
:10016A00790797FB08950E949C040E948D040E94BF
:10017A0087000E94920419F40E945A0205C0E6F709
:10018A000E945A020E945D02249608950E949C04CD
:10019A0024971A930A930E9464020E94B2042CF0D4
:1001AA00EFEFFFEF6FE77FEF73C00E9469020E94D3
:1001BA009704ADB7BEB711971F930F930E94B00271
:1001CA000F911F910E946E020E946402E3EFF4E015
:1001DA0065E37FE30E94560440F40E9473020E9482
:1001EA0073030E946E02015010400E9469020E942D
:1001FA005D027F936F93FF93EF930E946902A0E0E1
:10020A00B0E080E89FE30E947303AF91BF918F91A2
:10021A009F910E9411040E946E020E9473020E9422
:10022A007502A6E2B2E485E69FE30E947C02EEE450
:10023A00F1E164E570E40E9481020E9464020E9476
:10024A00C3037F936F93FF93EF930E948602ADE4FB
:10025A00B1E184ED9FE30E946C03AF91BF918F914E
:10026A009F910E9411047F936F93FF93EF93F8017C
:10027A000E947E040E943903A8E1B2E781E39FE36A
:10028A000E94C303AF91BF918F919F910E94730304
:10029A00198108812A9608950E949C0428971A9326
:1002AA000A930E948B02E0E5FCEA6EEA72EC0E9475
:1002BA00560418F40E94900285C0EA85FB856C8575
:1002CA007D850E94AE0429F4E0E0F0E060E87FE377
:1002DA0079C00E948B02E8E1F2E761EB72E40E94C6
:1002EA00560409F008F405C0EFEFFFEF6FE77FE768
:1002FA0069C00E948B02EBE3FAEA68EB7FE30E9493
:10030A00C303EA87FB876C877D870E948B022BDFFA
:10031A000E9402038F010E948B020E947E040E94A7
:10032A0039030E948102DF01CB01E0E0F0E060E0E6
:10033A007FE30E9481020E946E020E9473020E9461
:10034A007502ADE6BCE48CE69DE30E94C303A6EA0F
:10035A00B3EE86EE90E40E9473030E9464020E9448
:10036A00C3030E946E020E948602A8E2BDE886EAE2
:10037A0091E40E947303EA83FB836C837D830E946A
:10038A006902AA81BB818C819D810E947303A3EFBC
:10039A00B4E085EB9FE30E94C3037F936F93FF93BF
:1003AA00EF930E9464020E9486020E946C03AF913E
:1003BA00BF918F919F910E9411040E949704D801C6
:1003CA000E94C102198108812E9608950E949C04F8
:1003DA0024970E9495020E94AE0419F40E9490028A
:1003EA0045C0A885B9858A859B850E94B20494F484
:1003FA000E949A020E94AE0429F4E0E0F0E060E86C
:10040A007FE334C0A885B9858A859B850E949F02AF
:10041A0043DF2CC00E949A02DE010E9402030E945E
:10042A0083040E945A020E943903DF01CB010E9411
:10043A009A020E94B80419F00E94900217C00E9402
:10044A0095020E94CD02DF01CB010E949F0224DFA8
:10045A00E887F9876A877B87E881E17019F40E9447
:10046A00950204C00E9495020E94CD022C9608951E
:10047A002297E0E0F0E060E070E40E949704EE81E9
:10048A00FF810E947E040E943903DF01CB010E9492
:10049A00EB010E940003E883F983E881EBBBA4EF38
:1004AA00B1E00E94A602229608950E948804089547
:1004BA00A0E0B0E080E89FE30E946C030895AE815B
:1004CA00BF81888599850895EE81FF816885798540
:1004DA000895EE83FF83688779870895F5DFEFCF64
:1004EA000E94C303EA83FB836C837D8308950E9481
:1004FA00C303DF01CB0108950E94A1040E946C038B
:10050A000895EA81FB816C817D810895AA85BB8566
:10051A008C859D850895E0E0F0E060E070E0089544
:10052A00E885F9856A857B850895EC81FD816E8170
:10053A007F8108950E94CB00AC81BD818E819F810D
:10054A00D6CF109639F0A89580ED97E00197F1F78C
:10055A001197C9F70895E991F9916991799177FB12
:10056A00660F771F88277E57880B7D938C937EE7CB
:10057A00769567956EF00895E991F9916991799167
:10058A0077FB660F771F7A0F769567950EF00895B9
:10059A0030976040704009F070580895552342F42E
:1005AA00503811F4E0FF04C03196691F791F6BF0CF
:1005BA0050E8572711F45F93CFC05F3F31F0660FC1
:1005CA00000C57956795752F08955F9300200AF0E0
:1005DA00CFC0C8C050E8192E1522880F991F952739
:1005EA00550F879550E8072E0522660F771F752746
:1005FA00550F67950895689401C0E8945F93F2DFF8
:10060A00703818F07F3F08F4A7C056E1571BAAF4C8
:10061A00519558300EF4593030F0EFEFFFEF6FEF8D
:10062A007FE777F91AC077275523B9F0EE0FFF1F36
:10063A00661F771F5A95D1F710C07727583028F0D0
:10064A00EF2FF62F672F5850F9CF552331F07695B3
:10065A006795F795E7955A95D1F700200AF441D1A5
:10066A005F910895689401C0E894309760407040A3
:10067A00B1F0002426F0772312F4009432D1172E19
:10068A007EE1112032F07A95EE0FFF1F661F111CD2
:10069A00F9CFEF2FF62F612D5F938ADF5F910895CF
:1006AA004F93AF01FD01DA01AB01BC01CA01402D34
:1006BA00012C142E4F910895EA0FFB1F681F08950D
:1006CA00E095F0956095EF5FFF4F6F4F08955F9348
:1006DA0081DF903871F150E8152604C05F937ADF04
:1006EA00903839F1703821F1572F591B2BF112F438
:1006FA00D7DFFACF583118F0AA27BB2788275830F6
:10070A0028F0AB2FB82F88275850F9CF552329F056
:10071A008695B795A7955A95D9F7502D512572F018
:10072A00CBDF38F46795F795E795739513F420C0F6
:10073A00B7DF3EDF5F910895D8F7FBCFEA1BFB0BCB
:10074A00680B51F010F40094BBDF662392F3EE0FAE
:10075A00FF1F661F7A95CBF7EE27FF2766277727B5
:10076A005F910895EFEFFFEF6FE77FEF5F910895D5
:10077A00EFEFFFEF6FE77FE75F9108955F932ADF5F
:10078A00703851F3903841F301240894791F23F407
:10079A001CF300203AF3ECCF0F921F932F933F9351
:1007AA004F93112722279927689FA0018F9F302DE9
:1007BA00410D591F6B9F300D411D591F8E9F27D028
:1007CA00BF9F25D06A9F23D0BE9F1DD0AF9F1BD04D
:1007DA00AE9F110D291F391F491F591FE32FF42FEF
:1007EA00652F522F4F913F912F911F910F906623A2
:1007FA002AF0550FEE1FFF1F661F02C073954BF2BA
:10080A00CDDE5F910895100D211D391F02C0200D04
:10081A00311D491F591F08955F93DCDE703821F49A
:10082A0011200AF49FCFA4CF903809F495CF012460
:10083A000894970B1BF4D4F30020F3CF792F1F935E
:10084A002F933F934F9311241127222733274427AD
:10085A00552790E2AE17BF078607410730F0AE1B57
:10086A00BF0B860B410B089401C08894551F221FA9
:10087A00331F111CAA1FBB1F881F441F9A9551F7CB
:10088A00F901612D4F913F912F911F91662332F00B
:10089A00550FEE1FFF1F661F7A9543F27FDE5F91A9
:1008AA00089599239AF0772342F0971748F029F48C
:1008BA00AE17BF07860720F031F098948894089500
:1008CA009894089408951894889408957723C2F701
:1008DA00971798F3A9F7EA17FB07680788F399F3BC
:1008EA00ECCFF09560957095E195FF4F6F4F7F4F74
:1008FA0008956F2F660F660B762F0895ED93FD937B
:10090A006D937C930895E881F9816A817B810895CA
:10091A00A881B9818A819B810895E883F9836A83D2
:10092A007B8308957A936A93FA93EA9308959A9344
:10093A008A93BA93AA930895182E862F612D192E99
:10094A00972F712D1B2EBF2FF12D1A2EAE2FE12DB1
:10095A000895309760407040089500240A160B06E7
:10096A00080609060895EA17FB0768077907089534
:00000001FF
