:040000000C946300F9
:100004000C9400000C9400000C9400000C9400006C
:100014000C9400000C9400000C9400000C9400005C
:100024000C9400000C9490000C9400000C940000BC
:100034000C9400000C9400000C9400000C9400003C
:100044000C9400000C9400000C9400000C9400002C
:100054001027E80364000A000100001000011000EA
:1000640001003A003B000C000F000200010074691B
:100074006D653A253032643A253032643A2530329F
:100084006400414D00504D00212121414C41524D0D
:100094002121210080C008000600660001007202D0
:1000A4006E0001008A0270000300600286000300F3
:1000B400630289000C0066028C0002008E02980024
:1000C4000000F894EE27ECBBF1E0FBBFEBBFE5BF0B
:1000D4008DE0A2E0BB27ED938A95E9F780E098E0F4
:1000E400A0E6ED930197E9F7EAE9F0E085919591AF
:1000F400009761F0A591B59105901590BF01F001AD
:1001040005900D920197E1F7FB01F0CFEFE5EDBF0C
:10011400E8E0EEBFC0E6D2E00C9410010A921A9215
:10012400FA926A937A938A939A93AA93BA93EA93E4
:10013400FA93EFB7EA93F20131962F01E4EFF1E07D
:10014400E415F50509F05CC044245524F301319607
:100154003F01ECE3F0E0E615F70589F46624772423
:10016400F40131964F01ECE3F0E0E815F90539F4B8
:10017400882499240E94E80311F40E94F0030E9449
:100184006103E6E7F2E0FA93EA93E2E7F0E0FA9338
:10019400EA93F5010E94FE03F4010E94FE03F301B9
:1001A4000E94FE038CE00E94FC026096E0E0EA9369
:1001B400A0E00E945003A6E7B2E00E948F03EEE0A5
:1001C400EA93A0E00E945003E0918A02F0918B022E
:1001D400309719F4A0E6B2E002C0A3E6B2E00E94B0
:1001E4008F03A0918C02B0918D02119749F4E4E041
:1001F400EA93A1E00E945003A6E6B2E00E948F03B6
:10020400E991EFBFF991E991B991A99199918991F6
:1002140079916991F990199009901895E0E0EABBF9
:10022400EBBBE0E8E7BBEFE0E8BBEBE0E3BFE0E01B
:10023400E2BFE9EFECBFE2E0E9BFA0E10E94A00366
:1002440078940E94030461F40E940A0449F46C1433
:100254007D0431F4A0918A02B0918B02109709F0C9
:1002640007C0C79AE1E0F0E0E0938C02F0938D02BE
:100274000E94030471F40E940A0459F4F6013596AD
:10028400E615F70531F4A0918A02B0918B0210971C
:1002940009F006C0C798E0E0E0938C02E0938D0279
:1002A400B09905C0EDE0F0E0AE16BF060CF007C053
:1002B400B09BFECF0E94E80311F40E94F003B199B1
:1002C40004C000240A140B040CF005C0B19BFECF3B
:1002D400F50131975F01B29905C0ECE3F0E08E16A9
:1002E4009F060CF005C0B29BFECFF40131964F017E
:1002F400B39904C00024081409040CF005C0B39B8E
:10030400FECFF40131974F019CCFFFCFBA93AA934C
:100314001A930A93AA81BB8112960E9467043097AC
:1003240059F1AA81BB8114960E9467048F0130970A
:1003340061F00230E0E01E0798F0F80131978F0178
:10034400AA81BB811496ED93FC93AA81BB8112967A
:10035400ED91FD913196FE93EE933197AC81A0839C
:10036400AA81BB810E946704FF232AF0ED91FD91CD
:100374003196FE93EE9306C0AA81BB81EFEFFFEFA7
:10038400ED93FC931981088125960895BA93AA9355
:1003940026970E94740410E0AC85BD85E0E0F0E08F
:1003A400ED93FC93EA89FB893196EA8BFB8B3197B9
:1003B400E4912E2FE03009F415C1E12FE03039F437
:1003C400253211F411E002C00E9411040AC1E13087
:1003D400A9F4253219F40E94110402C112E040E08C
:1003E40000E02D3211F401E0FCC02B3211F44BE299
:1003F400F8C0203211F440E2F4C002C0E23039F413
:1004040050E013E0203311F40068EBC003C0E33084
:1004140009F0E7C0203310F02A3308F007C0AAE03F
:100424005A9F502DE22FE0535E0FDBC0E22FE336DC
:1004340049F40E941804E889F989A481AA930E94C6
:100444001E04CEC0E33741F40E9418040E94240421
:100454000E94CF031E2F0AC0E03761F40E941804E3
:100464000E9424040E94DB031E2F086002600F77A1
:1004740030E034C0E43611F0E93611F4046002C00F
:10048400E53731F4E4E5F0E0EE83FF8315E00CC0DA
:10049400E83511F4086003C0E83709F0A1C0EEE5BF
:1004A400F0E0EE83FF8314E002FF14C00E941804FE
:1004B4000E942E04AB85AA233AF4EA85FB850E94A8
:1004C4005904EA87FB874DE2403011F01F5F01C0F9
:1004D4000B7F04C00E9418040E942E0400FD11C06A
:1004E400151778F407FF08C002FF04C00B7F242F00
:1004F400115001C020E301C020E20E9411045150B8
:10050400EFCF312F01FF17C03030A1F003FF06C039
:10051400EE81FF812591EE83FF8305C0AE81BF810B
:100524002D91AE83BF830E941104503009F05150C5
:100534003150EACF4BC020E3EE81FF810E946B046F
:10054400E887F987EE81FF813296EE83FF83E885A1
:10055400F985AA85BB85AE17BF0750F02F5FA88524
:10056400B985EA85FB85EA1BFB0BEA87FB87EFCF9E
:100574002A3328F003FF02C0295F01C0295D04FD6E
:100584001AC0213320F4A885B985119709F409C04C
:10059400531710F000FF01C013C020E207FF0BC087
:1005A40020E3006102FF07C00B7F4A930E941E04F0
:1005B400503009F051500E941104503009F051504C
:1005C4003150A885B985129708F0B5CF00FF08C04F
:1005D400503031F05150E0E2EA930E941E04F8CF0B
:1005E40010E0E0CEAC85BD850E9467040E947B04C8
:1005F40064960895FF92F82E26970E9476040E942E
:100604003604309719F4EFEFFFEF23C0DE0116969E
:100614000E9455048D010E943604EE83FF83E0E0BE
:10062400E887E987DE011A960E9455040E94670450
:10063400FA93EA931A930A93E8E8F1E0FA93EA93B7
:10064400DE011A96A3DE9F01AE81BF81E0E0EC9348
:10065400F9010E947D042A96FF900895AA93EBB3B2
:10066400EF70AE2FE881E07FEA2BEBBB8DE08A953B
:10067400F1F7DA9A8DE08A95F1F7DA988DE08A95A8
:10068400F1F789C0AA93A881E9DFE881E295E883BC
:10069400A881E4DF85E88A95F1F77DC0AA93E88113
:1006A400F0E0E257FD4FE081A981AE0FEBDFE98175
:1006B400E0939202E881E093930222960895A2E0E7
:1006C4000E943D04ACE0DEDFA1E00E943D04E0E0D6
:1006D400E0939302E09392020895AA93A881AA302A
:1006E40031F0E0919402A0919202AE1760F0E0E044
:1006F400EA93A0919302AF5FA0939302CFDFA88106
:10070400AA3009F448C0E0919202EF5FE0939202AC
:10071400D89AA881B7DFD8983EC0BA93AA931A93FF
:10072400A981BA81ED91A983BA831E2FE03019F013
:10073400A12FD3DFF5CF188123960895AA93EAB3A6
:10074400E06FEABBD29AD09AD19ADA98D898D9981D
:10075400E881E0939402E058E0939002E881E05449
:10076400E0939102A4E1B0E00E944B040E94430490
:100774000E9443040E944304A0E270DF88EC90E0EE
:100784000197F1F7A8E27EDFA4E07CDFA5E87ADF39
:10079400A6E078DF94DF21960895BA93AA93A991ED
:1007A400B991EE27FF276D91662311F03196FBCFA7
:1007B4000895BA93AA93AA27BB27E991F9910590C2
:1007C400002011F01196FBCFFD010895F50131963B
:1007D4005F01EDE0F0E0EA15FB050895AA24BB24CF
:1007E400E0918A02F0918B020E946204F0E0E093AF
:1007F4008A02F0938B0208950E945D040E946F04A4
:100804000895A0917402B0917502AA16BB060895CA
:10081400A0917202B09173028A169B0608952A93DE
:10082400AD85BE85EF85F88909950895E889F9892C
:100834003497E88BF98B0895AD85BE85EF85F889EB
:1008440009950895A889B98914960E946704EE83CE
:10085400FF83AE81BF810895A889B98914960E9447
:100864006704EA87FB870895DE011C960E945504FD
:100874000E94670408950E944403A3E0B0E00C942E
:100884004B04A0E30E94300388EC90E00197F1F759
:100894000895109639F0A89580ED97E00197F1F747
:1008A4001197C9F708950024AF0DB01D0895F1956F
:1008B400E195F04008956F2F660F660B762F08952B
:1008C400EF2BE1E009F0E0E00895ED91FC91119740
:1008D40008950590F491E02D08957A936A93FA931C
:1008E400EA9308955A934A933A932A931A930A934C
:1008F40008955D814C813B812A8119810881089585
:00000001FF
