:0A0000000C9439000C9400000C94DD
:10000A0000000C9400000C9400000C9400000C9466
:10001A0000000C9400000C9400000C9400000C9456
:10002A0000000C9400000C9400000C9400000C9446
:10003A0000000C9400000C9400000C9400000C9436
:10004A0000000C9400000C9400001027E8036400E0
:10005A000A00010000100001100001002A0080C0FF
:10006A000200700268000000F894EE27ECBBF1E091
:10007A00FBBFEBBFE5BF8DE0A2E0BB27ED938A95FE
:10008A00E9F780E098E0A0E6ED930197E9F7EAE660
:10009A00F0E085919591009761F0A591B591059051
:1000AA001590BF01F00105900D920197E1F7FB0150
:1000BA00F0CFEFE5EDBFE8E0EEBFC0E6D2E00C948A
:1000CA006600E0E0EABBEFE0EBBBE0E0E7BBE8BBE1
:1000DA00E4BBE5BBE1BBE2BBE3BFE2BFECBFEFBD04
:1000EA00EEBDEDBDECBDE7BDE6BDEBBDEABDE9BDCC
:1000FA00E8BDE2BDE5BDE4BDE3BDE9BFE5BFE4BFE0
:10010A00EAB9E0E8E8B9E0E0E0BFE6B9EDB9E6BF90
:10011A00A0E10E94EE02C8990CC0C89BFECFEFE096
:10012A00F0E04E165F061CF4F20131962F010E9490
:10013A003503C9990BC0C99BFECF002404140504DA
:10014A001CF4F20131972F010E943503CA990CC0A1
:10015A00CA9BFECFE1E0F0E06E167F061CF4F301C5
:10016A0031963F010E943503CB990BC0CB9BFECF42
:10017A000024061407041CF4F30131973F010E947E
:10018A0035030E94BC02E0E6F2E0FA93EA93E6E65F
:10019A00F0E0FA93EA93F4010E9485030E94920325
:1001AA0084E00E945B0228964A92A62D0E94AF0222
:1001BA00A0E6B2E00E94DD02A5E0B0E00E9473036F
:1001CA00AACFFFCFBA93AA931A930A93AA81BB81A3
:1001DA0012960E948A03309759F1AA81BB8114961C
:1001EA000E948A038F01309761F00230E0E01E0717
:1001FA0098F0F80131978F01AA81BB811496ED938B
:10020A00FC93AA81BB811296ED91FD913196FE93E2
:10021A00EE933197AC81A083AA81BB810E948A03A5
:10022A00FF232AF0ED91FD913196FE93EE9306C0DD
:10023A00AA81BB81EFEFFFEFED93FC93198108814F
:10024A0025960895BA93AA9326970E94970310E0D9
:10025A00AC85BD85E0E0F0E0ED93FC93EA89FB898B
:10026A003196EA8BFB8B3197E4912E2FE03009F41B
:10027A0015C1E12FE03039F4253211F411E002C042
:10028A000E9439030AC1E130A9F4253219F40E9407
:10029A00390302C112E040E000E02D3211F401E01E
:1002AA00FCC02B3211F44BE2F8C0203211F440E2C8
:1002BA00F4C002C0E23039F450E013E0203311F404
:1002CA000068EBC003C0E33009F0E7C0203310F048
:1002DA002A3308F007C0AAE05A9F502DE22FE053B4
:1002EA005E0FDBC0E22FE33649F40E944003E8893F
:1002FA00F989A481AA930E944603CEC0E33741F448
:10030A000E9440030E944C030E941C031E2F0AC035
:10031A00E03761F40E9440030E944C030E942803C4
:10032A001E2F086002600F7730E034C0E43611F007
:10033A00E93611F4046002C0E53731F4E4E5F0E08F
:10034A00EE83FF8315E00CC0E83511F4086003C0A2
:10035A00E83709F0A1C0EEE5F0E0EE83FF8314E090
:10036A0002FF14C00E9440030E945603AB85AA23D1
:10037A003AF4EA85FB850E948103EA87FB874DE20E
:10038A00403011F01F5F01C00B7F04C00E94400380
:10039A000E94560300FD11C0151778F407FF08C024
:1003AA0002FF04C00B7F242F115001C020E301C0BB
:1003BA0020E20E9439035150EFCF312F01FF17C0BD
:1003CA003030A1F003FF06C0EE81FF812591EE8354
:1003DA00FF8305C0AE81BF812D91AE83BF830E948A
:1003EA003903503009F051503150EACF4BC020E365
:1003FA00EE81FF810E948E03E887F987EE81FF81F3
:10040A003296EE83FF83E885F985AA85BB85AE1708
:10041A00BF0750F02F5FA885B985EA85FB85EA1BDF
:10042A00FB0BEA87FB87EFCF2A3328F003FF02C0D2
:10043A00295F01C0295D04FD1AC0213320F4A88573
:10044A00B985119709F409C0531710F000FF01C0CC
:10045A0013C020E207FF0BC020E3006102FF07C0C0
:10046A000B7F4A930E944603503009F051500E9474
:10047A003903503009F051503150A885B985129787
:10048A0008F0B5CF00FF08C0503031F05150E0E21B
:10049A00EA930E944603F8CF10E0E0CEAC85BD8512
:1004AA000E948A030E949E0364960895FF92F82E82
:1004BA0026970E9499030E945E03309719F4EFEF82
:1004CA00FFEF23C0DE0116960E947D038D010E9474
:1004DA005E03EE83FF83E0E0E887E987DE011A9690
:1004EA000E947D030E948A03FA93EA931A930A935D
:1004FA00E7EEF0E0FA93EA93DE011A96A3DE9F0193
:10050A00AE81BF81E0E0EC93F9010E94A0032A9634
:10051A00FF900895AA93E2B3EF70AE2FE881E07FCF
:10052A00EA2BE2BB8DE08A95F1F7929A8DE08A95E3
:10053A00F1F792988DE08A95F1F777C0AA93A8818E
:10054A00E9DFE881E295E883A881E4DF85E88A9516
:10055A00F1F76BC0AA93E881F0E0E059FD4FE08122
:10056A00A981AE0FEBDFB980A88022960895A2E098
:10057A000E946503ACE0E2DFA1E00E946503E0E0CF
:10058A00AE2EBE2E0895AA93A881AA3011F0BD14EA
:10059A0048F0E0E0EA93A394AA2DDCDFA881AA3010
:1005AA0009F443C0B394909AA881C8DF90983DC0DB
:1005BA00BA93AA931A93A981BA81ED91A983BA83AE
:1005CA001E2FE03019F0A12FDEDFF5CF1881239618
:1005DA000895AA93E1B3E06FE1BB8A9A889A899A4F
:1005EA00929890989198D880E881E058E0937202A6
:1005FA00E881E054E0937302A4E1B0E00E9473033F
:10060A000E946B030E946B030E946B03A0E282DFCD
:10061A0088EC90E00197F1F7A8E290DFA4E08EDF82
:10062A00A5E88CDFA6E08ADFA2DF21960895BA93B7
:10063A00AA93A991B991EE27FF276D91662311F02C
:10064A003196FBCF0895BA93AA93AA27BB27E991BB
:10065A00F9910590002011F01196FBCFFD01089544
:10066A00A4E6B0E00C9473032A93AD85BE85EF85AA
:10067A00F88909950895E889F9893497E88BF98BFF
:10068A000895AD85BE85EF85F88909950895A889ED
:10069A00B98914960E948A03EE83FF83AE81BF81D3
:1006AA000895A889B98914960E948A03EA87FB8764
:1006BA000895DE011C960E947D030E948A03089514
:1006CA000E94A302A3E0B0E00C947303A0E30E948B
:1006DA008F0288EC90E00197F1F70895109639F0AF
:1006EA00A89580ED97E00197F1F71197C9F708955A
:1006FA000024AF0DB01D0895F195E195F0400895DD
:10070A006F2F660F660B762F0895ED91FC91119766
:10071A0008950590F491E02D08957A936A93FA93D7
:10072A00EA9308955A934A933A932A931A930A9307
:10073A0008955D814C813B812A8119810881089540
:00000001FF
