:0C0000000C9442000C946F000C947A00E9
:10000C000C947D000C9400000C9400000C940000E7
:10001C000C9400000C9400000C9400000C94000054
:10002C000C9400000C9400000C9400000C94000044
:10003C000C9400000C9400000C9400000C94000034
:10004C000C9400000C9400001027E80364000A00D4
:10005C00010000100001100001006400636F756E58
:10006C007465723A2564000080C0020004006600CA
:10007C000200740274000000F894EE27ECBBF1E06F
:10008C00FBBFEBBFE5BF8DE0A2E0BB27ED938A95EC
:10009C00E9F780E098E0A0E6ED930197E9F7E6E751
:1000AC00F0E085919591009761F0A591B59105903F
:1000BC001590BF01F00105900D920197E1F7FB013E
:1000CC00F0CFEFE5EDBFE8E0EEBFC0E6D2E00C9478
:1000DC009D000E941003E415F5052CF4F2013197F4
:1000EC002F010E94200315C00E9410030FC00A921A
:1000FC001A92FA926A937A938A939A93AA93BA93DE
:10010C00EA93FA93EFB7EA93F20131962F010E942A
:10011C002003E991EFBFF991E991B991A9919991D6
:10012C00899179916991F990199009901895E0E06D
:10013C00EABBEBBBE0E8E7BBE4E0E8BBE0E0E4BB38
:10014C00E5BBE1BBE8E0E2BBEBB7E06EEBBFE3E0A5
:10015C00E5BFE0E0E4BFE0EEEABF7894A0E16BD04D
:10016C00C79AA0EDB7E00E947403C798A0EDB7E062
:10017C000E947403F5CFFFCFAA93EBB3EF70AE2FB1
:10018C00E881E07FEA2BEBBB8DE08A95F1F7DA9AF8
:10019C008DE08A95F1F7DA988DE08A95F1F777C0C2
:1001AC00AA93A881E9DFE881E295E883A881E4DFDE
:1001BC0085E88A95F1F76BC0AA93E881F0E0EC58DA
:1001CC00FD4FE081A981AE0FEBDF7980688022962C
:1001DC000895A2E00E943A03ACE0E2DFA1E00E94A5
:1001EC003A03E0E06E2E7E2E0895AA93A881AA30E1
:1001FC0011F0791448F0E0E0EA936394A62DDCDF6B
:10020C00A881AA3009F443C07394D89AA881C8DF96
:10021C00D8983DC0BA93AA931A93A981BA81ED914B
:10022C00A983BA831E2FE03019F0A12FDEDFF5CFA2
:10023C00188123960895AA93EAB3E06FEABBD29A89
:10024C00D09AD19ADA98D898D9989880E881E058C1
:10025C00E0937602E881E054E0937702A4E1B0E009
:10026C000E9474030E9440030E9440030E944003BA
:10027C00A0E282DF88EC90E00197F1F7A8E290DF32
:10028C00A4E08EDFA5E88CDFA6E08ADFA2DF219652
:10029C000895BA93AA931A930A93AA81BB811296D2
:1002AC000E948B03309759F1AA81BB8114960E944E
:1002BC008B038F01309761F00230E0E01E0798F05D
:1002CC00F80131978F01AA81BB811496ED93FC93B1
:1002DC00AA81BB811296ED91FD913196FE93EE931E
:1002EC003197AC81A083AA81BB810E948B03FF2331
:1002FC002AF0ED91FD913196FE93EE9306C0AA8102
:10030C00BB81EFEFFFEFED93FC93198108812596EC
:10031C000895BA93AA9326970E94980310E0AC858F
:10032C00BD85E0E0F0E0ED93FC93EA89FB89319622
:10033C00EA8BFB8B3197E4912E2FE03009F415C139
:10034C00E12FE03039F4253211F411E002C00E94A3
:10035C0048030AC1E130A9F4253219F40E9448037C
:10036C0002C112E040E000E02D3211F401E0FCC0CB
:10037C002B3211F44BE2F8C0203211F440E2F4C0FD
:10038C0002C0E23039F450E013E0203311F400687D
:10039C00EBC003C0E33009F0E7C0203310F02A3380
:1003AC0008F007C0AAE05A9F502DE22FE0535E0FD1
:1003BC00DBC0E22FE33649F40E944F03E889F98948
:1003CC00A481AA930E945503CEC0E33741F40E9446
:1003DC004F030E945B030E94F7021E2F0AC0E037F6
:1003EC0061F40E944F030E945B030E9403031E2FC3
:1003FC00086002600F7730E034C0E43611F0E93663
:10040C0011F4046002C0E53731F4E4E5F0E0EE836A
:10041C00FF8315E00CC0E83511F4086003C0E83721
:10042C0009F0A1C0EEE5F0E0EE83FF8314E002FFDB
:10043C0014C00E944F030E946503AB85AA233AF4B3
:10044C00EA85FB850E948203EA87FB874DE24030F8
:10045C0011F01F5F01C00B7F04C00E944F030E946C
:10046C00650300FD11C0151778F407FF08C002FFE3
:10047C0004C00B7F242F115001C020E301C020E2E7
:10048C000E9448035150EFCF312F01FF17C030307D
:10049C00A1F003FF06C0EE81FF812591EE83FF835F
:1004AC0005C0AE81BF812D91AE83BF830E944803EE
:1004BC00503009F051503150EACF4BC020E3EE815F
:1004CC00FF810E948F03E887F987EE81FF813296C6
:1004DC00EE83FF83E885F985AA85BB85AE17BF0738
:1004EC0050F02F5FA885B985EA85FB85EA1BFB0BCD
:1004FC00EA87FB87EFCF2A3328F003FF02C0295F7E
:10050C0001C0295D04FD1AC0213320F4A885B985EA
:10051C00119709F409C0531710F000FF01C013C064
:10052C0020E207FF0BC020E3006102FF07C00B7F36
:10053C004A930E945503503009F051500E944803D1
:10054C00503009F051503150A885B985129708F0F8
:10055C00B5CF00FF08C0503031F05150E0E2EA93C3
:10056C000E945503F8CF10E0E0CEAC85BD850E940B
:10057C008B030E949F0364960895FF92F82E269792
:10058C000E949A030E946D03309719F4EFEFFFEF6E
:10059C0023C0DE0116960E947E038D010E946D031E
:1005AC00EE83FF83E0E0E887E987DE011A960E947C
:1005BC007E030E948B03FA93EA931A930A93EFE457
:1005CC00F1E0FA93EA93DE011A96A3DE9F01AE8165
:1005DC00BF81E0E0EC93F9010E94A1032A96FF9001
:1005EC000895BA93AA93A991B991EE27FF276D911B
:1005FC00662311F03196FBCF0895BA93AA93AA27DC
:10060C00BB27E991F9910590002011F01196FBCFD1
:10061C00FD0108950A921A92FA926A937A938A9338
:10062C009A93AA93BA93EA93FA93EFB7EA93E4E610
:10063C00F0E00895E0E6F2E0FA93EA93E8E6F0E001
:10064C00FA93EA93F2010E9486030E94930384E0DA
:10065C000E94C3022896E0E0EA93A0E00E94E20028
:10066C00A0E6B2E00C9410010E94D600A3E0B0E02A
:10067C000C947403A0E30E94C20088EC90E00197F4
:10068C00F1F708952A93AD85BE85EF85F889099514
:10069C000895E889F9893497E88BF98B0895AD852D
:1006AC00BE85EF85F88909950895A889B9891496AE
:1006BC000E948B03EE83FF83AE81BF810895A889CE
:1006CC00B98914960E948B03EA87FB870895DE0193
:1006DC001C960E947E030E948B030895109639F09D
:1006EC00A89580ED97E00197F1F71197C9F7089558
:1006FC000024AF0DB01D0895F195E195F0400895DB
:10070C006F2F660F660B762F0895ED91FC91119764
:10071C0008950590F491E02D08957A936A93FA93D5
:10072C00EA9308955A934A933A932A931A930A9305
:10073C0008955D814C813B812A811981088108953E
:00000001FF
