:0E0000000C9440000C946D000C9478000C944D
:10000E0000000C9400000C9400000C9400000C9462
:10001E0000000C9400000C9400000C948A000C94C8
:10002E0000000C9400000C9400000C9400000C9442
:10003E0000000C9400000C9400000C9400000C9432
:10004E0000000C9400001027E80364000A00010071
:10005E00001000011000010073746572743A25647B
:10006E0000656E643A25640080C00200740276005A
:10007E000000F894EE27ECBBF1E0FBBFEBBFE5BF51
:10008E008DE0A2E0BB27ED938A95E9F780E098E03A
:10009E00A0E6ED930197E9F7E8E7F0E085919591F9
:1000AE00009761F0A591B59105901590BF01F001F3
:1000BE0005900D920197E1F7FB01F0CFEFE5EDBF53
:1000CE00E8E0EEBFC0E6D2E00C948B00EA93EFB707
:1000DE00EA93829905C0ECB7EF5FECBF829BFECF2F
:1000EE000EC0EA93EFB7EA93839903C0ECB7E23000
:1000FE0008F405C0ECB7E150ECBF839BFECFE9914D
:10010E00EFBFE99118951895E0E0EABBEBBBE8E08C
:10011E00E7BBE1E0E8BBE0E0E4BBE5BBE1BBECE064
:10012E00E2BBEEE1E3BFE0E0E2BFE2E0ECBFE9BF3D
:10013E00EBB7E06CEBBFEAE0E5BFE0E0E4BFE0EC7C
:10014E00EABFA0E10E94EF027894ECB7E13010F420
:10015E00E1E0ECBFECB7AE2FE2B7AE1710F4ECB7A0
:10016E00E2BFE0E6F2E0FA93EA93E6E6F0E0FA9315
:10017E00EA93E2B70E943603E0E0EA93A0E00E9421
:10018E00B002A0E6B2E00E94DE02E1E0EA93A1E056
:10019E000E94B002E0E6F2E0FA93EA93EFE6F0E0B6
:1001AE00FA93EA93ECB70E943603A0E6B2E00E94FF
:1001BE00DE02A4E6B0E00E947A030E94BD02C5CF23
:1001CE00FFCFBA93AA931A930A93AA81BB81129670
:1001DE000E948C03309759F1AA81BB8114960E941C
:1001EE008C038F01309761F00230E0E01E0798F02B
:1001FE00F80131978F01AA81BB811496ED93FC9380
:10020E00AA81BB811296ED91FD913196FE93EE93EC
:10021E003197AC81A083AA81BB810E948C03FF23FE
:10022E002AF0ED91FD913196FE93EE9306C0AA81D0
:10023E00BB81EFEFFFEFED93FC93198108812596BB
:10024E000895BA93AA9326970E94990310E0AC855D
:10025E00BD85E0E0F0E0ED93FC93EA89FB893196F1
:10026E00EA8BFB8B3197E4912E2FE03009F415C108
:10027E00E12FE03039F4253211F411E002C00E9472
:10028E0040030AC1E130A9F4253219F40E9440035B
:10029E0002C112E040E000E02D3211F401E0FCC09A
:1002AE002B3211F44BE2F8C0203211F440E2F4C0CC
:1002BE0002C0E23039F450E013E0203311F400684C
:1002CE00EBC003C0E33009F0E7C0203310F02A334F
:1002DE0008F007C0AAE05A9F502DE22FE0535E0FA0
:1002EE00DBC0E22FE33649F40E944703E889F9891F
:1002FE00A481AA930E944D03CEC0E33741F40E941D
:10030E0047030E9453030E941D031E2F0AC0E037AD
:10031E0061F40E9447030E9453030E9429031E2F7B
:10032E00086002600F7730E034C0E43611F0E93631
:10033E0011F4046002C0E53731F4E4E5F0E0EE8339
:10034E00FF8315E00CC0E83511F4086003C0E837F0
:10035E0009F0A1C0EEE5F0E0EE83FF8314E002FFAA
:10036E0014C00E9447030E945D03AB85AA233AF492
:10037E00EA85FB850E948803EA87FB874DE24030C1
:10038E0011F01F5F01C00B7F04C00E9447030E9443
:10039E005D0300FD11C0151778F407FF08C002FFBA
:1003AE0004C00B7F242F115001C020E301C020E2B6
:1003BE000E9440035150EFCF312F01FF17C0303054
:1003CE00A1F003FF06C0EE81FF812591EE83FF832E
:1003DE0005C0AE81BF812D91AE83BF830E944003C5
:1003EE00503009F051503150EACF4BC020E3EE812E
:1003FE00FF810E949003E887F987EE81FF81329694
:10040E00EE83FF83E885F985AA85BB85AE17BF0706
:10041E0050F02F5FA885B985EA85FB85EA1BFB0B9B
:10042E00EA87FB87EFCF2A3328F003FF02C0295F4C
:10043E0001C0295D04FD1AC0213320F4A885B985B9
:10044E00119709F409C0531710F000FF01C013C033
:10045E0020E207FF0BC020E3006102FF07C00B7F05
:10046E004A930E944D03503009F051500E944003B0
:10047E00503009F051503150A885B985129708F0C7
:10048E00B5CF00FF08C0503031F05150E0E2EA9392
:10049E000E944D03F8CF10E0E0CEAC85BD850E94E2
:1004AE008C030E94A00364960895FF92F82E26975F
:1004BE000E949B030E946503309719F4EFEFFFEF44
:1004CE0023C0DE0116960E9484038D010E946503EF
:1004DE00EE83FF83E0E0E887E987DE011A960E944B
:1004EE0084030E948C03FA93EA931A930A93E8EE1C
:1004FE00F0E0FA93EA93DE011A96A3DE9F01AE8135
:10050E00BF81E0E0EC93F9010E94A2032A96FF90CE
:10051E000895AA93EBB3EF70AE2FE881E07FEA2B3C
:10052E00EBBB8DE08A95F1F7DA9A8DE08A95F1F7BB
:10053E00DA988DE08A95F1F777C0AA93A881E9DF62
:10054E00E881E295E883A881E4DF85E88A95F1F7F2
:10055E006BC0AA93E881F0E0EC58FD4FE081A981D1
:10056E00AE0FEBDF5980488022960895A2E00E94DC
:10057E006C03ACE0E2DFA1E00E946C03E0E04E2EE3
:10058E005E2E0895AA93A881AA3011F0571448F050
:10059E00E0E0EA934394A42DDCDFA881AA3009F4AD
:1005AE0043C05394D89AA881C8DFD8983DC0BA9357
:1005BE00AA931A93A981BA81ED91A983BA831E2FAA
:1005CE00E03019F0A12FDEDFF5CF188123960895C4
:1005DE00AA93EAB3E06FEABBD29AD09AD19ADA988C
:1005EE00D898D9987880E881E058E0937602E8812F
:1005FE00E054E0937702A4E1B0E00E947A030E94F7
:10060E0072030E9472030E947203A0E282DF88ECE2
:10061E0090E00197F1F7A8E290DFA4E08EDFA5E865
:10062E008CDFA6E08ADFA2DF21960895BA93AA9303
:10063E00A991B991EE27FF276D91662311F031969E
:10064E00FBCF0895BA93AA93AA27BB27E991F991F4
:10065E000590002011F01196FBCFFD010895FF27A4
:10066E00662777270E94940384E00E945C022896F6
:10067E0008952A93AD85BE85EF85F889099508956D
:10068E00E889F9893497E88BF98B0895AD85BE8595
:10069E00EF85F88909950895A889B98914960E945D
:1006AE008C03EE83FF83AE81BF810895A889B9893B
:1006BE0014960E948C03EA87FB870895DE011C9630
:1006CE000E9484030E948C0308950E94A402A3E05A
:1006DE00B0E00C947A03A0E30E94900288EC90E0C4
:1006EE000197F1F70895109639F0A89580ED97E0EF
:1006FE000197F1F71197C9F708950024AF0DB01DBA
:10070E000895F195E195F0400895ED91FC911197C2
:10071E0008950590F491E02D08957A936A93FA93D3
:10072E00EA9308955A934A933A932A931A930A9303
:10073E0008955D814C813B812A811981088108953C
:00000001FF
