:0A0000000C942A000C9400000C94EC
:10000A0000000C9400000C9400000C9400000C9466
:10001A0000000C9400000C9400000C9400000C9456
:10002A0000000C9400000C9400000C9400000C9446
:10003A0000000C9400000C9400000C9400000C9436
:10004A0000000C9400000C940000F894EE27ECBB1E
:10005A00F1E0FBBFEBBFE5BF8DE0A2E0BB27ED936C
:10006A008A95E9F780E098E0A0E6ED930197E9F731
:10007A00EFE5EDBFE8E0EEBFC0E6D2E00C94450044
:10008A00EFEFEABBE0E0EBBB44245524E0E0F1E00B
:10009A004E165F064CF44BBAA8ECB0E00E945B0027
:1000AA00F20131962F01F2CFEFCFFFCF109639F040
:1000BA00A89580ED97E00197F1F71197C9F7089590
:00000001FF
