:0A0000000C944C000C9400000C94CA
:10000A0000000C9400000C9400000C9400000C9466
:10001A0000000C9400000C9400000C9400000C9456
:10002A0000000C9400000C9400000C9400000C9446
:10003A0000000C9400000C9400000C9400000C9436
:10004A0000000C9400000C940000000070657263BC
:10005A00656E743A252E32662525006D566F6C74CE
:10006A003A252E3366002D4E414E000080C0010015
:10007A002D4E414E00494E46000002000400540035
:10008A0002007C0276000100800278000000F894E9
:10009A00EE27ECBBF1E0FBBFEBBFE5BF8DE0A2E0D2
:1000AA00BB27ED938A95E9F780E098E0A0E6ED9307
:1000BA000197E9F7E4E8F0E085919591009761F0FE
:1000CA00A591B59105901590BF01F00105900D928B
:1000DA000197E1F7FB01F0CFEFE5EDBFE8E0EEBFF6
:1000EA00C0E6D2E00C948800AA93E881E064E7B9FC
:1000FA008BE18A95F1F7369A349BFECF349AE4B1B4
:10010A00F5B10C942C05E0E0EABBEBBBE7BBE8BB1E
:10011A00EFE0E4BBE0E1E5BBE0E4E7B9E7EAE6B932
:10012A00E0E0E0BFA0E10E940005A0E0DDDF2F01D2
:10013A000E943706A0E0B0E080EA9BE30E944708ED
:10014A00E0937402F09375026093760270937702DB
:10015A00F2010E943706DF01CB01E0E0F0E060E83F
:10016A0074E40E949508A0E0B0E088EC92E40E9452
:10017A004708E0937802F093790260937A027093C9
:10018A007B029C9911C0E0E6F2E0FA93EA93E6E575
:10019A00F0E0FA93EA93E0917802F09179026091A3
:1001AA007A0270917B0210C0E0E6F2E0FA93EA93D9
:1001BA00E5E6F0E0FA93EA93E0917402F0917502B1
:1001CA0060917602709177020E947E0984E00E9413
:1001DA006D042896A0E6B2E00E94EF04A4E6B0E01F
:1001EA000E9447070E94CE040E943C060E94990979
:1001FA004CF40E943C06E0E0F0E060ED71E40E94FD
:10020A00DA0808F002C0E1E13AC00E943C06E0E0E8
:10021A00F0E068EC71E40E94DA0809F008F409C019
:10022A000E943C06E0E0F0E06CE472E40E94DA0826
:10023A0008F002C0E3E123C00E943C06E0E0F0E0DF
:10024A0068E472E40E94DA0809F008F409C00E941E
:10025A003C06E0E0F0E068E972E40E94DA0808F09F
:10026A0002C0E7E10CC00E943C06E0E0F0E066E96B
:10027A0072E40E94DA0809F008F402C0EFE1E5BB73
:10028A0054CFFFCFBA93AA931A930A93AA81BB8138
:10029A0012960E946509309729F1AA81BB811496AA
:1002AA000E9465098F01309761F00230E0E01E0775
:1002BA0080F0F80131978F01AA81BB811496ED93E2
:1002CA00FC93AA81BB8112960E9445063197AC81A4
:1002DA00A083AA81BB810E946509FF2312F00E94B4
:1002EA00450606C0AA81BB81EFEFFFEFED93FC93B1
:1002FA0019810881259608950E944B06E0E8EA8351
:10030A00EFE3EB830E94A109EE85FF85EF3FAFEF94
:10031A00FA0749F4E885F985FA93EA93A0E7B0E089
:10032A000E942E05B7C0EF3FAFE7FA0749F4E88508
:10033A00F985FA93EA93A1E7B0E00E942E05AAC0D4
:10034A00AB85A73010F0E6E0EB871B85E12F115053
:10035A00E03019F00E945206F9CFEC85FD856E85D2
:10036A007F850E94950921F430E00E9452062DC033
:10037A003B850E94610609F008F40BC00E945206F0
:10038A000E94610628F00E946C060E947106F8CF4E
:10039A000DC00E94610640F40E946C060E947D0610
:1003AA000E9484063150F5CF0E945206EC85FD85E5
:1003BA006E857F850E9489060E9484060E946106D6
:1003CA0020F00E946C060E94710610E0EB85E1178E
:1003DA00A8F1AC81BD818E819F810E9490060E9406
:1003EA008906DF01CB010E948505EC83FD836E83BC
:1003FA007F830E946C060E9495080E9484070E2F34
:10040A000E9497060E949E06FF27662777270E946A
:10041A00BD07AC81BD818E819F810E9447080E94E1
:10042A006C060E94A3060E948406E12F1F5FE0303B
:10043A0069F60E949706EEE2EC93C8CF0E94A806DE
:10044A003197AA85A08330302CF43195A885B985D7
:10045A00EDE203C0A885B985EBE2EC930E94A806F9
:10046A000E94A8063197BF01A32FEAE00E941F0944
:10047A00E05DDB01EC930E94A8063197BF01A32F30
:10048A00EAE00E944909E05DDB01EC93A885B985A1
:10049A00E0E0EC930E94A80960960895BA93AA93A3
:1004AA00EF9761970E949F0910E0FE01E85AFF4FFB
:1004BA000190F081E02DE887F987FE01EA5AFF4FA3
:1004CA000190F081E02DEE83FF83AE81BF81E0E0F1
:1004DA00F0E0ED93FC93DE01A45ABF4F0E9445065B
:1004EA003197E4912E2FE03009F4E9C1E12FE03091
:1004FA0039F4253211F411E002C00E94AE06DEC1C1
:10050A00E130C1F4253219F40E94AE06D6C112E0D8
:10051A00E0E0ED8B00E02D3211F401E0CFC12B3287
:10052A0019F4EBE2ED8BCAC1203219F4E0E2ED8B4B
:10053A00C5C102C0E23039F450E013E0203311F4AF
:10054A000068BCC102C0E33091F4203310F02A33B2
:10055A0008F007C0AAE05A9F502DE22FE0535E0F21
:10056A00ADC140E02E3211F414E0A8C10FC0E4304E
:10057A0099F4203310F02A3308F008C00062AAE088
:10058A004A9F402DE22FE0534E0F98C12C3619F4A2
:10059A00026015E093C103C0E53009F08FC1E22F74
:1005AA00E33659F40E94B5060E94BC060E94B506BD
:1005BA00A481AA930E94C30680C1E53411F0E536EE
:1005CA0009F403C0E63609F048C0FE017696EE87C4
:1005DA00FF870E94C9060E9469090E94D0060E94EC
:1005EA00D506AD85AA2332F0AD89AB3259F0A032D7
:1005FA0081F017C00E94D7060E9451070E94D006B8
:10060A00EDE2ED8B07FF05C0ED89EA930E94C30670
:10061A0008C0EE85FF853196EE87FF873197AD8951
:10062A00A08305FF46E0263651F40E94D7060E94B1
:10063A007E094A93AB89BC890E949C0509C00E9425
:10064A00D7060E947E094A932A93AC89BD8954DE53
:10065A00FE0176960E94DC061EC0E33739F40E943A
:10066A00D5060E94E4060E94DC060EC0E037C1F4FB
:10067A000E94D5060E94E406EE87FF87AE85BF85F5
:10068A000E9447051E2F08600F77403011F041176E
:10069A0008F001C0142F40E0E0E0EC8B30E06DC0C0
:1006AA00E43611F0E93611F4046002C0E537A1F42A
:1006BA00EAE0EC8B01FF08C0E0E0FAEC6AE97BE3D0
:1006CA000E94E9061AE022C0E0E1F7E260E070E089
:1006DA000E94E90615E01AC0E83511F4086003C063
:1006EA00E83709F0EAC0E0E1EC8B01FF08C0E0E07E
:1006FA00F0E060E070E10E94E90618E007C0E0E07F
:10070A00F0E160E070E00E94E90614E0403011F088
:10071A000F7701C041E001FF08C00E94D5060E9480
:10072A00C90614960E9469090FC002FF07C00E94F9
:10073A00D5060E94E4060E940C0906C00E94D5064E
:10074A000E94E40666277727EA87FB876C877D87FE
:10075A0002FF12C0AD85AA2342F40E94D7060E9466
:10076A00FE080E94D006EDE2ED8BED89E03019F02B
:10077A001F5F4F5F01C00B7F342F00FD14C0151798
:10078A0010F4351708F00FC007FF08C002FF04C0B5
:10079A000B7F2D89115001C020E301C020E20E9485
:1007AA00AE065150ECCF141790F4006102FF06C058
:1007BA000E94EE0609F0515011504150E0E3EA93CD
:1007CA000E94C306503009F051504150ECCF312FEE
:1007DA00EC89E030B9F43030A1F003FF06C0EE85B1
:1007EA00FF852591EE87FF8705C0AE85BF852D91D0
:1007FA00AE87BF870E94AE06503009F05150315083
:10080A00EACF51C00E9400070E9424092E2F2A30E5
:10081A0030F003FF02C0295C01C0295A01C0205DE3
:10082A0004FD21C0213360F4A889B9898A899B898A
:10083A00A130E0E0BE07E0E08E07E0E09E0709F4A1
:10084A000BC0431740F4531710F000FF01C010C04B
:10085A0020E207FF08C020E3006102FF04C00E94F3
:10086A00EE0609F051500E94AE06503009F0515080
:10087A0031500E9400070E9455090E94D006EC8957
:10088A00A889B9898A899B89FF27662777270E94C1
:10089A0024090E94E906E889F9896A897B890E9404
:1008AA00950909F0AFCF00FF08C0503031F0515020
:1008BA00E0E2EA930E94C306F8CF10E00CCEAE81C4
:1008CA00BF810E9465090E94A609EF966F96089556
:1008DA00FF92F82E26970E94A1090E9409073097D5
:1008EA0019F4EFEFFFEF23C0DE0116960E94FA0813
:1008FA008D010E940907EE83FF83E0E0E887E9871C
:10090A00DE011A960E94FA080E946509FA93EA9390
:10091A001A930A93E7E4F1E0FA93EA93DE011A964E
:10092A00BDDD9F01AE81BF81E0E0EC93F9010E9439
:10093A00A8092A96FF900895AA93E8B3EF70AE2FFC
:10094A00E881E07FEA2BE8BB8DE08A95F1F7C29A4D
:10095A008DE08A95F1F7C2988DE08A95F1F777C014
:10096A00AA93A881E9DFE881E295E883A881E4DF18
:10097A0085E88A95F1F76BC0AA93E881F0E0E4581C
:10098A00FD4FE081A981AE0FEBDF79806880229666
:10099A000895A2E00E941007ACE0E2DFA1E00E9405
:1009AA001007E0E06E2E7E2E0895AA93A881AA3041
:1009BA0011F0791448F0E0E0EA936394A62DDCDFA5
:1009CA00A881AA3009F443C07394C09AA881C8DFE9
:1009DA00C0983DC0BA93AA931A93A981BA81ED919E
:1009EA00A983BA831E2FE03019F0A12FDEDFF5CFDD
:1009FA00188123960895AA93E7B3E06FE7BBBA9AE2
:100A0A00B89AB99AC298C098C1989880E881E05873
:100A1A00E0937E02E881E054E0937F02A4E1B0E033
:100A2A000E9447070E9416070E9416070E9416078F
:100A3A00A0E282DF88EC90E00197F1F7A8E290DF6C
:100A4A00A4E08EDFA5E88CDFA6E08ADFA2DF21968C
:100A5A000895BA93AA93E991F991A991B991CD010F
:100A6A0005900D920020E1F7FC010895BA93AA932C
:100A7A00A991B991EE27FF276D91662311F031965E
:100A8A00FBCF0895BA93AA93AA27BB27E991F991B4
:100A9A000590002011F01196FBCFFD0108950E94E8
:100AAA0083097B816A81F981E88177FB770F67FD8A
:100ABA007160972F9E5781F078F0983190F4AA27A9
:100ACA00BB27882708948795B795A7959A95D1F754
:100ADA00EA23FB23682305C0E8947727EE27FF273C
:100AEA0066276F77769508F4606877F9A991B991C6
:100AFA0089919991EA17FB076807790797FB089587
:100B0A000E9483090E9474090E9454050E9479096F
:100B1A0019F40E946F0909C0E6F70E946F09A0E064
:100B2A00B0E080E89FE30E94F00724960895AED0D3
:100B3A00E0E0EA83EFE3EB831A930A93EB85FC8503
:100B4A00EF3FAFEFFA0731F474D1AAE7B0E00E94A1
:100B5A002E0584C0EF3FAFE7FA0731F46AD1ABE75D
:100B6A00B0E00E942E057AC0AC85AA2352F4E9852A
:100B7A00FA856B857C850E94510760D164D1EDE2CC
:100B8A00EC93A885A73010F0E6E0E8871885E12FF6
:100B9A001150E03021F05ED1BED061D1F8CF64D1DE
:100BAA000E94F7074BD110E0E0E0F0E060E87FE355
:100BBA0056D15AD10E94DA0868F04CD199D04FD157
:100BCA001F5F173230F035D1AFE7B0E00E942E0533
:100BDA0045C0EFCF103021F436D1E0E3EC931DC0CD
:100BEA00E12F1150E030C9F035D195D08DD0DF0119
:100BFA00CB010E94850533D137D10E9495080E9406
:100C0A0084070E2F20D195D0F0E024D12BD00E945A
:100C1A00470833D193D012D1E3CFE885E030D1F041
:100C2A0012D1EEE2EC93E885E150E887EF5F91F0AC
:100C3A0024D15ED003D1E985FA856B857C850E9433
:100C4A0084070E2F00D175D0F0E017D10BD076D0E3
:100C5A00F5D0E9CFAE81BF81E0E0EC93198108813C
:100C6A002D9608950E940C090E94BD070895A0912F
:100C7A007802B091790280917A0290917B0208956C
:100C8A00ED91FD913196FE93EE930895BA93AA934E
:100C9A002497E0E0E883E9830895AC81BD818E81E1
:100CAA009F81E0E0F0E060E271E40E944708EC8393
:100CBA00FD836E837F830895EC81FD816E817F8140
:100CCA00AC85BD858E859F850E94DA080895AC851E
:100CDA00BD858E859F850895EDECFCEC6CEC7DE37B
:100CEA000E944708EC87FD876E877F873F5F0895DC
:100CFA00E0E0F0E060E271E40E9447080895EC87C2
:100D0A00FD876E877F870895A0E0B0E080E09FE3CB
:100D1A000E94F7070895EDECFCEC6CEC7DE30E9471
:100D2A0047080895A885B9851196A887B9871197A4
:100D3A000895E02FE05DEC93E02F08950E94880962
:100D4A000E94F0070895E885F9853196E887F987C2
:100D5A0008952A93AF81B885E985FA85099508959A
:100D6A00FE01E65AFF4F0190F081E02D0895349775
:100D7A00DE01A65ABF4FED93FC930895AF81B88563
:100D8A00E985FA8509950895DE01A65ABF4F0D90A7
:100D9A00BC91A02D0895EA87FB876C877D8708950B
:100DAA00DFDFE5CFEA85FB856C857D850895EE87D3
:100DBA00FF87AE85BF850E943B051E2F0895E4DF9D
:100DCA0014960E9465090895E88BF98B6A8B7B8BD0
:100DDA0008950B7FED89EA93DE01A95ABF4F0D9062
:100DEA00BC91A02DFE01E75AFF4F0190F081E02D42
:100DFA00099550300895E889F9896A897B89AA8515
:100E0A00BB858C859D850895DE011C960E94FA0893
:100E1A000E94650908950E94B504A3E0B0E00C940D
:100E2A004707A0E30E94A10488EC90E00197F1F73C
:100E3A000895EE81FF81FA93EA930895E987FA8784
:100E4A006B877C870895AE81BF811196AE83BF837D
:100E5A0011970895AA81BB818C819D810895EA83A7
:100E6A00FB836C837D830895EA81FB816C817D819C
:100E7A00A985BA858B859C850895A985BA858B85B0
:100E8A009C850895109639F0A89580ED97E0019712
:100E9A00F1F71197C9F7089530976040704009F04B
:100EAA0070580895552342F4503811F4E0FF04C0F5
:100EBA003196691F791F6BF050E8572711F45F9339
:100ECA00CFC05F3F31F0660F000C57956795752FBD
:100EDA0008955F9300200AF0CFC0C8C050E8192EC9
:100EEA001522880F991F9527550F879550E8072EC9
:100EFA000522660F771F7527550F67950895689421
:100F0A0001C0E8945F93F2DF703818F07F3F08F46D
:100F1A00A7C056E1571BAAF4519558300EF4593020
:100F2A0030F0EFEFFFEF6FEF7FE777F91AC077271F
:100F3A005523B9F0EE0FFF1F661F771F5A95D1F799
:100F4A0010C07727583028F0EF2FF62F672F585008
:100F5A00F9CF552331F076956795F795E7955A9528
:100F6A00D1F700200AF445D15F910895689401C031
:100F7A00E894309760407040B1F0002426F077235F
:100F8A0012F4009436D1172E7EE1112032F07A95B0
:100F9A00EE0FFF1F661F111CF9CFEF2FF62F612DE1
:100FAA005F938ADF5F9108954F93AF01FD01DA01E4
:100FBA00AB01BC01CA01402D012C142E4F9108959A
:100FCA00EA0FFB1F681F0895E095F0956095EF5FA3
:100FDA00FF4F6F4F08955F9381DF903871F150E8AA
:100FEA00152604C05F937ADF903839F1703821F101
:100FFA00572F591B2BF112F4D7DFFACF583118F0BB
:10100A00AA27BB278827583028F0AB2FB82F882764
:10101A005850F9CF552329F08695B795A7955A9533
:10102A00D9F7502D512572F0CBDF38F46795F79533
:10103A00E795739513F420C0B7DF3EDF5F910895FB
:10104A00D8F7FBCFEA1BFB0B680B51F010F40094A6
:10105A00BBDF662392F3EE0FFF1F661F7A95CBF76D
:10106A00EE27FF27662777275F910895EFEFFFEFB7
:10107A006FE77FEF5F910895EFEFFFEF6FE77FE78D
:10108A005F9108955F932ADF703851F3903841F3E6
:10109A0001240894791F23F41CF300203AF3ECCFBF
:1010AA000F921F932F933F934F931127222799272C
:1010BA00689FA0018F9F302D410D591F6B9F300DE6
:1010CA00411D591F8E9F27D0BF9F25D06A9F23D0CD
:1010DA00BE9F1DD0AF9F1BD0AE9F110D291F391F78
:1010EA00491F591FE32FF42F652F522F4F913F911C
:1010FA002F911F910F9066232AF0550FEE1FFF1FA5
:10110A00661F02C073954BF2CDDE5F910895100DF4
:10111A00211D391F02C0200D311D491F591F089575
:10112A005F93DCDE703821F411200AF49FCFA4CF3C
:10113A00903809F495CF01240894970B1BF4D4F343
:10114A000020F3CF792F1F932F933F934F931124AE
:10115A001127222733274427552790E2AE17BF07C6
:10116A008607410730F0AE1BBF0B860B410B089474
:10117A0001C08894551F221F331F111CAA1FBB1FB1
:10118A00881F441F9A9551F7F901612D4F913F919C
:10119A002F911F91662332F0550FEE1FFF1F661F16
:1011AA007A9543F27FDE5F91089599239AF0772327
:1011BA0042F0971748F029F4AE17BF07860720F0C8
:1011CA0031F09894889408959894089408951894FE
:1011DA00889408957723C2F7971798F3A9F7EA171F
:1011EA00FB07680788F399F3ECCF0024AF0DB01D15
:1011FA000895F09560957095E195FF4F6F4F7F4F79
:10120A000895FE2FFF0FFF0B6F2F7F2F08956F2F6B
:10121A00660F660B762F0895002498E0AA0F001C2B
:10122A000E1A10F40E0E01C0A1609A95B9F7EA2FB2
:10123A00A02D089539D0F0DF0EF4E19508953F937B
:10124A004F935F93002411244427552730E2AA0FB5
:10125A00BB1F881F991F001C111C441F551F0E1A03
:10126A001F0A460B570B28F40E0E1F1E461F571F48
:10127A0001C0A1603A9559F7FD01BC01D001CA012C
:10128A005F914F913F910895E894A7FF02C0A195FD
:10129A006894E7FDE195C0DFEA2F0EF4E195089521
:1012AA00CEDFFD01BC010895E894E7FF02C0E19595
:1012BA006894A7FF04C0A19500F8039400FA089562
:1012CA00ED91FC9111970895ED91FD916D917C91AD
:1012DA0013970895E881F9816A817B810895A8812D
:1012EA00B9818A819B810895E883F9836A837B8324
:1012FA0008957A936A93FA93EA9308959A938A934C
:10130A00BA93AA930895182E862F612D192E972F16
:10131A00712D1B2EBF2FF12D1A2EAE2FE12D089500
:10132A00309760407040089500240A160B0608069C
:10133A00090608955A934A933A932A931A930A9359
:10134A0008955D814C813B812A8119810881089524
:00000001FF
